:020000020000FC
:1000000008E00EBF0FE50DBF0FEF04BB01BB0BBB3C
:1000100000E00ABB80E090E0B1E009B30E94680014
:10002000B03011F40E94490040E050E060E070E020
:10003000A82FAA3020F02AE0A21B6395FACF7A2FCE
:10004000A92FAA3020F02AE0A21B4395FACF5A2FFD
:100050000EEF02BB042F0E94780005BB0E946E00C9
:100060000DEF02BB052F0E94780005BB0E946E00B9
:100070000BEF02BB062F0E94780005BB0E946E00AA
:1000800007EF02BB072F0E94780005BB0E946E009D
:10009000C4CF11E01023103009F003C00E945400B7
:1000A00002C00E945D0008958395843628F080E0A8
:1000B0009395943608F090E00895803011F08A9579
:1000C00006C083E6903011F09A9501C093E608953A
:1000D000BA3011F0B39501C0B0E0089511E025E108
:1000E0003FEF3A95F1F72A95D9F71A95C1F7089598
:1000F000003011F40FE30895013011F406E0089583
:10010000023011F40BE50895033011F40FE4089563
:10011000043011F406E60895053011F40DE6089553
:10012000063011F40DE70895073011F407E0089543
:10013000083011F40FE70895093009F40FE6089527
:00000001FF
