:0A0000000C944E000C9400000C94C8
:10000A0000000C9400000C9400000C9400000C9466
:10001A0000000C9400000C9400000C9400000C9456
:10002A0000000C9400000C9400000C9400000C9446
:10003A0000000C9400000C9400000C9400000C9436
:10004A0000000C9400000C9400001027E8036400E0
:10005A000A000100001000011000010053657461DC
:10006A0072656820426162616A616E6900536574F3
:10007A0061726568000080C01100600266000800B5
:10008A0071027700090079026E0002008202800084
:10009A000000F894EE27ECBBF1E0FBBFEBBFE5BF35
:1000AA008DE0A2E0BB27ED938A95E9F780E098E01E
:1000BA00A0E6ED930197E9F7E2E8F0E085919591E2
:1000CA00009761F0A591B59105901590BF01F001D7
:1000DA0005900D920197E1F7FB01F0CFEFE5EDBF37
:1000EA00E8E0EEBFC0E6D2E00C947B0000E0E0E07E
:1000FA00EBB9E8E1EAB9E6E8E0BDE0E0E0BDE3E358
:10010A00E9B9A0E1B0D00E9465011E2FA12F83D0CA
:10011A00A12F0E946901133421F471D00E94700149
:10012A0027C0133641F400E0083120F40E94700120
:10013A000F5FFACF1DC01E3441F40E947001A0E681
:10014A00B2E018D00E94700113C01D3489F40E94D5
:10015A00700155D0E5E0EA93A0E044D0A1E7B2E00F
:10016A0071D0E0E0EA93A1E03DD0A9E7B2E06AD01D
:10017A00CACFFFCFBA93AA935524A881B981EE2793
:10018A00A50DBE1FEC91E03051F0A881B981EE2790
:10019A00A50DBE1FAC910E9469015394EECF2DC0EC
:1001AA00AA93E5B3EF70AE2FE881E07FEA2BE5BBB7
:1001BA0082E08A95F1F7AA9A82E08A95F1F7AA98DD
:1001CA0082E08A95F1F70C946E01AA93A881E8DF80
:1001DA00E881E295E883A881E3DF81E18A95F1F776
:1001EA000C946E01AA93E881F0E0EE57FD4FE0818E
:1001FA00A981AE0FEADF4980788022960895A2E0AD
:10020A000E947601ACE0E1DFA1E00E947601E0E025
:10021A007E2E4E2E0895AA93A881AA3011F0461474
:10022A0050F0E0E0EA937394A72DDCDFA881AA30AE
:10023A0011F40C946E014394A89AA881C6DFA89879
:10024A000C946E01BA93AA931A93A981BA81ED917B
:10025A00A983BA831E2FE03019F0A12FDCDFF5CF76
:10026A00188123960895AA93E4B3E06FE4BBA29A97
:10027A00A09AA19AAA98A898A9986880E881E058B3
:10028A00E0938402E881E054E0938502A4E1B0E0BF
:10029A000E9483010E947C010E947C010E947C01D1
:1002AA00A0E27EDF81E28A95F1F7A8E28EDFA4E080
:1002BA008CDFA5E88ADFA6E088DFA1DF0C946E0157
:1002CA005F9BFECFECB10895AA935D9BFECFE881B8
:1002DA00ECB921960895ADE00E946901AAE00C9458
:1002EA0069010E94EA00A3E0B0E00C948301A0E354
:1002FA000E94D50081E28A95F1F70895109639F0A7
:10030A00A8958AEF90E00197F1F71197C9F7089538
:00000001FF
